{
  "_format": "hh-sol-artifact-1",
  "contractName": "CrowdFunding",
  "sourceName": "contracts/CrowdFunding.sol",
  "abi": [
    {
      "inputs": [
        {
          "internalType": "uint256",
          "name": "_campaignId",
          "type": "uint256"
        },
        {
          "internalType": "string",
          "name": "_description",
          "type": "string"
        },
        {
          "internalType": "uint256",
          "name": "_targetAmount",
          "type": "uint256"
        },
        {
          "internalType": "uint256",
          "name": "_deadline",
          "type": "uint256"
        }
      ],
      "name": "addMilestone",
      "outputs": [],
      "stateMutability": "nonpayable",
      "type": "function"
    },
    {
      "inputs": [
        {
          "internalType": "uint256",
          "name": "",
          "type": "uint256"
        },
        {
          "internalType": "uint256",
          "name": "",
          "type": "uint256"
        }
      ],
      "name": "campaignMilestones",
      "outputs": [
        {
          "internalType": "string",
          "name": "description",
          "type": "string"
        },
        {
          "internalType": "uint256",
          "name": "targetAmount",
          "type": "uint256"
        },
        {
          "internalType": "uint256",
          "name": "deadline",
          "type": "uint256"
        },
        {
          "internalType": "bool",
          "name": "completed",
          "type": "bool"
        }
      ],
      "stateMutability": "view",
      "type": "function"
    },
    {
      "inputs": [
        {
          "internalType": "uint256",
          "name": "",
          "type": "uint256"
        }
      ],
      "name": "campaigns",
      "outputs": [
        {
          "internalType": "address",
          "name": "owner",
          "type": "address"
        },
        {
          "internalType": "string",
          "name": "title",
          "type": "string"
        },
        {
          "internalType": "string",
          "name": "description",
          "type": "string"
        },
        {
          "internalType": "uint256",
          "name": "target",
          "type": "uint256"
        },
        {
          "internalType": "uint256",
          "name": "deadline",
          "type": "uint256"
        },
        {
          "internalType": "uint256",
          "name": "amountCollected",
          "type": "uint256"
        }
      ],
      "stateMutability": "view",
      "type": "function"
    },
    {
      "inputs": [
        {
          "internalType": "uint256",
          "name": "_id",
          "type": "uint256"
        },
        {
          "internalType": "uint256",
          "name": "_milestoneIndex",
          "type": "uint256"
        }
      ],
      "name": "completeMilestone",
      "outputs": [],
      "stateMutability": "nonpayable",
      "type": "function"
    },
    {
      "inputs": [
        {
          "internalType": "string",
          "name": "_title",
          "type": "string"
        },
        {
          "internalType": "string",
          "name": "_description",
          "type": "string"
        },
        {
          "internalType": "uint256",
          "name": "_target",
          "type": "uint256"
        },
        {
          "internalType": "uint256",
          "name": "_deadline",
          "type": "uint256"
        }
      ],
      "name": "createCampaign",
      "outputs": [
        {
          "internalType": "uint256",
          "name": "",
          "type": "uint256"
        }
      ],
      "stateMutability": "nonpayable",
      "type": "function"
    },
    {
      "inputs": [
        {
          "internalType": "uint256",
          "name": "_id",
          "type": "uint256"
        }
      ],
      "name": "donateToCampaign",
      "outputs": [],
      "stateMutability": "payable",
      "type": "function"
    },
    {
      "inputs": [],
      "name": "getCampaigns",
      "outputs": [
        {
          "components": [
            {
              "internalType": "address",
              "name": "owner",
              "type": "address"
            },
            {
              "internalType": "string",
              "name": "title",
              "type": "string"
            },
            {
              "internalType": "string",
              "name": "description",
              "type": "string"
            },
            {
              "internalType": "uint256",
              "name": "target",
              "type": "uint256"
            },
            {
              "internalType": "uint256",
              "name": "deadline",
              "type": "uint256"
            },
            {
              "internalType": "uint256",
              "name": "amountCollected",
              "type": "uint256"
            },
            {
              "internalType": "address[]",
              "name": "donators",
              "type": "address[]"
            },
            {
              "internalType": "uint256[]",
              "name": "donations",
              "type": "uint256[]"
            }
          ],
          "internalType": "struct CrowdFunding.Campaign[]",
          "name": "",
          "type": "tuple[]"
        }
      ],
      "stateMutability": "view",
      "type": "function"
    },
    {
      "inputs": [
        {
          "internalType": "uint256",
          "name": "_id",
          "type": "uint256"
        }
      ],
      "name": "getDonators",
      "outputs": [
        {
          "internalType": "address[]",
          "name": "",
          "type": "address[]"
        },
        {
          "internalType": "uint256[]",
          "name": "",
          "type": "uint256[]"
        }
      ],
      "stateMutability": "view",
      "type": "function"
    },
    {
      "inputs": [],
      "name": "numberOfCampaigns",
      "outputs": [
        {
          "internalType": "uint256",
          "name": "",
          "type": "uint256"
        }
      ],
      "stateMutability": "view",
      "type": "function"
    },
    {
      "inputs": [
        {
          "internalType": "uint256",
          "name": "_id",
          "type": "uint256"
        }
      ],
      "name": "releaseFunds",
      "outputs": [],
      "stateMutability": "nonpayable",
      "type": "function"
    }
  ],
  "bytecode": "0x6080604052600060025534801561001557600080fd5b50611442806100256000396000f3fe6080604052600436106100915760003560e01c80634d68282f116100595780634d68282f1461016457806393d17e2514610184578063a318f269146101a4578063a6b03633146101c4578063f326206b146101e657600080fd5b806307ca140d146100965780630fa91fa9146100bf578063141961bc146100ed5780633178492a1461011f57806342a4fda81461014f575b600080fd5b3480156100a257600080fd5b506100ac60025481565b6040519081526020015b60405180910390f35b3480156100cb57600080fd5b506100df6100da366004610edc565b610206565b6040516100b6929190610ef5565b3480156100f957600080fd5b5061010d610108366004610edc565b6102d5565b6040516100b696959493929190610fc6565b34801561012b57600080fd5b5061013f61013a36600461101b565b610424565b6040516100b6949392919061103d565b61016261015d366004610edc565b6104fe565b005b34801561017057600080fd5b5061016261017f366004610edc565b61064b565b34801561019057600080fd5b5061016261019f366004611111565b610824565b3480156101b057600080fd5b506100ac6101bf366004611168565b6108d0565b3480156101d057600080fd5b506101d96109c3565b6040516100b69190611239565b3480156101f257600080fd5b5061016261020136600461101b565b610cd7565b6000818152602081815260409182902060068101805484518185028101850190955280855260609485949293600701929091849183018282801561027357602002820191906000526020600020905b81546001600160a01b03168152600190910190602001808311610255575b50505050509150808054806020026020016040519081016040528092919081815260200182805480156102c557602002820191906000526020600020905b8154815260200190600101908083116102b1575b5050505050905091509150915091565b600060208190529081526040902080546001820180546001600160a01b0390921692916103019061132a565b80601f016020809104026020016040519081016040528092919081815260200182805461032d9061132a565b801561037a5780601f1061034f5761010080835404028352916020019161037a565b820191906000526020600020905b81548152906001019060200180831161035d57829003601f168201915b50505050509080600201805461038f9061132a565b80601f01602080910402602001604051908101604052809291908181526020018280546103bb9061132a565b80156104085780601f106103dd57610100808354040283529160200191610408565b820191906000526020600020905b8154815290600101906020018083116103eb57829003601f168201915b5050505050908060030154908060040154908060050154905086565b6001602052816000526040600020818154811061044057600080fd5b9060005260206000209060040201600091509150508060000180546104649061132a565b80601f01602080910402602001604051908101604052809291908181526020018280546104909061132a565b80156104dd5780601f106104b2576101008083540402835291602001916104dd565b820191906000526020600020905b8154815290600101906020018083116104c057829003601f168201915b50505050600183015460028401546003909401549293909290915060ff1684565b6002548111156105295760405162461bcd60e51b81526004016105209061135f565b60405180910390fd5b60008181526020819052604090206004810154421061058a5760405162461bcd60e51b815260206004820152601860248201527f43616d706169676e20646561646c696e652070617373656400000000000000006044820152606401610520565b806003015434826005015461059f91906113ac565b11156105ed5760405162461bcd60e51b815260206004820152601760248201527f43616d706169676e2074617267657420726561636865640000000000000000006044820152606401610520565b600681018054600181810183556000928352602080842090920180546001600160a01b0319163317905560078401805491820181558352908220349101819055600583018054919290916106429084906113ac565b90915550505050565b600254811061066c5760405162461bcd60e51b81526004016105209061135f565b600081815260208190526040902080546001600160a01b031633146106e15760405162461bcd60e51b815260206004820152602560248201527f4f6e6c792063616d706169676e206f776e65722063616e2072656c656173652060448201526466756e647360d81b6064820152608401610520565b8060030154816005015410156107395760405162461bcd60e51b815260206004820152601960248201527f54617267657420616d6f756e74206e6f742072656163686564000000000000006044820152606401610520565b6000828152600160205260408120905b81548110156107d957818181548110610764576107646113c4565b600091825260209091206003600490920201015460ff166107c75760405162461bcd60e51b815260206004820181905260248201527f416c6c206d696c6573746f6e6573206d75737420626520636f6d706c657465646044820152606401610520565b806107d1816113da565b915050610749565b50815460058301546040516001600160a01b039092169181156108fc0291906000818181858888f19350505050158015610817573d6000803e3d6000fd5b5050600060059091015550565b60025484106108455760405162461bcd60e51b81526004016105209061135f565b6000848152600160208181526040808420815160808101835288815280840188905291820186905260608201859052805493840181558452928190208351805160049094029091019261089b9284920190610e43565b5060208201516001820155604082015160028201556060909101516003909101805460ff191691151591909117905550505050565b6002546000908152602081905260408120600481015442106109445760405162461bcd60e51b815260206004820152602760248201527f54686520646561646c696e652073686f756c642062652061206461746520696e6044820152662066757475726560c81b6064820152608401610520565b80546001600160a01b0319163317815585516109699060018301906020890190610e43565b50845161097f9060028301906020880190610e43565b50600381018490556004810183905560006005820181905560028054916109a5836113da565b919050555060016002546109b991906113f5565b9695505050505050565b6060600060025467ffffffffffffffff8111156109e2576109e261106e565b604051908082528060200260200182016040528015610a6457816020015b610a5160405180610100016040528060006001600160a01b03168152602001606081526020016060815260200160008152602001600081526020016000815260200160608152602001606081525090565b815260200190600190039081610a005790505b50905060005b600254811015610cd157600081815260208181526040918290208251610100810190935280546001600160a01b0316835260018101805491939284929084019190610ab49061132a565b80601f0160208091040260200160405190810160405280929190818152602001828054610ae09061132a565b8015610b2d5780601f10610b0257610100808354040283529160200191610b2d565b820191906000526020600020905b815481529060010190602001808311610b1057829003601f168201915b50505050508152602001600282018054610b469061132a565b80601f0160208091040260200160405190810160405280929190818152602001828054610b729061132a565b8015610bbf5780601f10610b9457610100808354040283529160200191610bbf565b820191906000526020600020905b815481529060010190602001808311610ba257829003601f168201915b5050505050815260200160038201548152602001600482015481526020016005820154815260200160068201805480602002602001604051908101604052809291908181526020018280548015610c3f57602002820191906000526020600020905b81546001600160a01b03168152600190910190602001808311610c21575b5050505050815260200160078201805480602002602001604051908101604052809291908181526020018280548015610c9757602002820191906000526020600020905b815481526020019060010190808311610c83575b505050505081525050838381518110610cb257610cb26113c4565b6020026020010181905250508080610cc9906113da565b915050610a6a565b50919050565b6002548210610cf85760405162461bcd60e51b81526004016105209061135f565b6000828152600160205260409020548110610d555760405162461bcd60e51b815260206004820152601860248201527f4d696c6573746f6e6520646f6573206e6f7420657869737400000000000000006044820152606401610520565b6000828152600160205260408120805483908110610d7557610d756113c4565b60009182526020909120600490910201600381015490915060ff1615610ddd5760405162461bcd60e51b815260206004820152601b60248201527f4d696c6573746f6e6520616c726561647920636f6d706c6574656400000000006044820152606401610520565b8060020154421115610e315760405162461bcd60e51b815260206004820152601960248201527f4d696c6573746f6e6520646561646c696e6520706173736564000000000000006044820152606401610520565b600301805460ff191660011790555050565b828054610e4f9061132a565b90600052602060002090601f016020900481019282610e715760008555610eb7565b82601f10610e8a57805160ff1916838001178555610eb7565b82800160010185558215610eb7579182015b82811115610eb7578251825591602001919060010190610e9c565b50610ec3929150610ec7565b5090565b5b80821115610ec35760008155600101610ec8565b600060208284031215610eee57600080fd5b5035919050565b604080825283519082018190526000906020906060840190828701845b82811015610f375781516001600160a01b031684529284019290840190600101610f12565b5050508381038285015284518082528583019183019060005b81811015610f6c57835183529284019291840191600101610f50565b5090979650505050505050565b6000815180845260005b81811015610f9f57602081850181015186830182015201610f83565b81811115610fb1576000602083870101525b50601f01601f19169290920160200192915050565b6001600160a01b038716815260c060208201819052600090610fea90830188610f79565b8281036040840152610ffc8188610f79565b60608401969096525050608081019290925260a0909101529392505050565b6000806040838503121561102e57600080fd5b50508035926020909101359150565b6080815260006110506080830187610f79565b60208301959095525060408101929092521515606090910152919050565b634e487b7160e01b600052604160045260246000fd5b600082601f83011261109557600080fd5b813567ffffffffffffffff808211156110b0576110b061106e565b604051601f8301601f19908116603f011681019082821181831017156110d8576110d861106e565b816040528381528660208588010111156110f157600080fd5b836020870160208301376000602085830101528094505050505092915050565b6000806000806080858703121561112757600080fd5b84359350602085013567ffffffffffffffff81111561114557600080fd5b61115187828801611084565b949794965050505060408301359260600135919050565b6000806000806080858703121561117e57600080fd5b843567ffffffffffffffff8082111561119657600080fd5b6111a288838901611084565b955060208701359150808211156111b857600080fd5b5061115187828801611084565b600081518084526020808501945080840160005b838110156111fe5781516001600160a01b0316875295820195908201906001016111d9565b509495945050505050565b600081518084526020808501945080840160005b838110156111fe5781518752958201959082019060010161121d565b60006020808301818452808551808352604092508286019150828160051b87010184880160005b8381101561131c57888303603f19018552815180516001600160a01b0316845261010088820151818a87015261129882870182610f79565b91505087820151858203898701526112b08282610f79565b606084810151908801526080808501519088015260a0808501519088015260c080850151888303828a015291935091506112ea83826111c5565b9250505060e080830151925085820381870152506113088183611209565b968901969450505090860190600101611260565b509098975050505050505050565b600181811c9082168061133e57607f821691505b60208210811415610cd157634e487b7160e01b600052602260045260246000fd5b60208082526017908201527f43616d706169676e20646f6573206e6f74206578697374000000000000000000604082015260600190565b634e487b7160e01b600052601160045260246000fd5b600082198211156113bf576113bf611396565b500190565b634e487b7160e01b600052603260045260246000fd5b60006000198214156113ee576113ee611396565b5060010190565b60008282101561140757611407611396565b50039056fea264697066735822122012e5410bba666fa3bad344ec9cbe1bd9b1cdd6daa83fa398ff88be0a31d85f1e64736f6c63430008090033",
  "linkReferences": {},
  "deployedLinkReferences": {}
}